:107000000C9434380C9451380C9451380C945138F9
:107010000C9451380C9451380C9451380C945138CC
:107020000C9451380C9451380C9451380C945138BC
:107030000C9451380C9451380C9451380C945138AC
:107040000C9451380C9451380C9451380C9451389C
:107050000C9451380C9451380C9451380C9451388C
:107060000C9451380C94513811241FBECFEFD8E046
:10707000DEBFCDBF11E0A0E0B1E0EEE3F4E702C077
:1070800005900D92A035B107D9F721E0A0E5B1E058
:1070900001C01D92A63DB207E1F70E94D1380C94C1
:1070A0001D3A0C940038BC0140915201509153019B
:1070B00083E0FA0180935700E89507B600FCFDCF06
:1070C0001092D50181E09091D50197FD16C0E92F6E
:1070D000F0E0DB01AE0FBF1F11962C91119730E04D
:1070E000322F2227AC912A2B090180935700E89573
:1070F00011249E5F9093D501E6CF85E0FA0180933D
:107100005700E89507B600FCFDCF089581E1809314
:107110005700E895E0E0F0E009948093C600809184
:10712000C00086FFFCCF8091C00080648093C000C7
:1071300008958091C00087FFFCCF8091C60008951C
:10714000CF93DF93EC018991882319F00E948D3849
:10715000FACF8DE00E948D388AE0DF91CF910C94B8
:107160008D38FC01E058FF4F20E030E0DC014D910C
:10717000CD01B901742748E09B01220F331F77FF2F
:1071800004C0B1E22B27B0E13B27415011F0B90117
:10719000F3CF8E179F0751F73093D40120935101FD
:1071A0000895CF92DF92EF92FF920F931F93CF93A8
:1071B000DF93F89414BE0FB6F894A8958091600000
:1071C000886180936000109260000FBE84E89EE1A9
:1071D0009093890080938800109280008DE08093C6
:1071E0008100259A1092C00088E18093C10086E05A
:1071F0008093C2001092C50087E68093C40089E3A3
:1072000091E00E94A03810925101CAE0D0E2B19BF7
:1072100010C0B19A80915101813009F185B18D275B
:1072200085B9C15031F480E391E00E94A0380E94FA
:1072300086388091C00087FFEACF2091C6008091F8
:107240005101E82FF0E0E050FF4F9081291304C076
:107250008F5F80935101DBCF10925101D8CF8EE127
:1072600091E00E94A038C2E3D0E2B19B0FC0B19A76
:1072700083E40E948D3885B18D2785B9C15031F4E2
:1072800080E391E00E94A0380E9486388091C0007F
:1072900087FFEBCF8091C600813039F710928100D3
:1072A00010925001109253011092520100E0C0E080
:1072B00080E2F82E91E1E92EDD24D3940F5F0E9445
:1072C00099388093D4010E94993880958093510118
:1072D0009091D401091387C0081385C0D0E810919C
:1072E000500181E0810F809350010E949938E12F75
:1072F000F0E0EC5AFE4F8083D15089F70E94993814
:10730000C82E0E949938182F20915001822F90E0AA
:107310008C529F4F0E94B1389091D401C91263C022
:107320009091510119135FC08091520190915301C6
:107330008115904790F48091500187FF10C084E53B
:1073400091E00E94533880915201909153018058EE
:107350009F4F90935301809352011092500180915E
:107360005201909153018115E0E79E0728F5E092C4
:107370005700E895D09251019C0120583109D7FD62
:1073800015C08D2F90E0F901E80FF91FE49141E05D
:107390004D0FDC01AC5ABE4F8C91E81729F0D09309
:1073A000D5011092510104C0D42FE9CFD093D5015B
:1073B00080915101882329F086E00E948D38C0E039
:1073C0000EC085E10E948D38CF5F8091520190916F
:1073D000530180589109909353018093520185B1D4
:1073E0008F2585B904C085E10E948D38CF5FC430F8
:1073F00050F086E00E948D38C1110BC08EE091E004
:107400000E94A0380DC00E949938843009F056CFF0
:10741000F0CF81E091E00E94A038E0E0F8E3099528
:107420000E94863880E090E0DF91CF911F910F910C
:0E743000FF90EF90DF90CF900895F894FFCF7B
:10743E0064757064617465206661696C2E00757088
:10744E006461746520737563636573732E00776171
:10745E006974696E6720666F7220646174612E00B4
:10746E0074696D656F75742E0077616974696E67E6
:10747E0020666F722070617373776F72642E0000D6
:040000030000700089
:00000001FF
